{
  "contractName": "Adoption",
  "abi": [
    {
      "inputs": [
        {
          "internalType": "uint256",
          "name": "",
          "type": "uint256"
        }
      ],
      "name": "adopters",
      "outputs": [
        {
          "internalType": "address",
          "name": "",
          "type": "address"
        }
      ],
      "stateMutability": "view",
      "type": "function",
      "constant": true
    },
    {
      "inputs": [
        {
          "internalType": "uint256",
          "name": "petId",
          "type": "uint256"
        }
      ],
      "name": "adopt",
      "outputs": [
        {
          "internalType": "uint256",
          "name": "",
          "type": "uint256"
        }
      ],
      "stateMutability": "nonpayable",
      "type": "function"
    },
    {
      "inputs": [],
      "name": "getAdopt",
      "outputs": [
        {
          "internalType": "address[16]",
          "name": "",
          "type": "address[16]"
        }
      ],
      "stateMutability": "view",
      "type": "function",
      "constant": true
    }
  ],
  "bytecode": "0x608060405234801561001057600080fd5b506104e3806100206000396000f3fe608060405234801561001057600080fd5b50600436106100415760003560e01c8063257aee621461004657806343ae80d3146100645780638588b2c514610094575b600080fd5b61004e6100c4565b60405161005b9190610329565b60405180910390f35b61007e60048036038101906100799190610380565b610145565b60405161008b91906103bc565b60405180910390f35b6100ae60048036038101906100a99190610380565b61017b565b6040516100bb91906103e6565b60405180910390f35b6100cc610229565b600060108060200260405190810160405280929190826010801561013b576020028201915b8160009054906101000a900473ffffffffffffffffffffffffffffffffffffffff1673ffffffffffffffffffffffffffffffffffffffff16815260200190600101908083116100f1575b5050505050905090565b6000816010811061015557600080fd5b016000915054906101000a900473ffffffffffffffffffffffffffffffffffffffff1681565b600080821015801561018e5750600f8211155b6101cd576040517f08c379a00000000000000000000000000000000000000000000000000000000081526004016101c49061045e565b60405180910390fd5b33600083601081106101e2576101e161047e565b5b0160006101000a81548173ffffffffffffffffffffffffffffffffffffffff021916908373ffffffffffffffffffffffffffffffffffffffff160217905550819050919050565b604051806102000160405280601090602082028036833780820191505090505090565b600060109050919050565b600081905092915050565b6000819050919050565b600073ffffffffffffffffffffffffffffffffffffffff82169050919050565b60006102978261026c565b9050919050565b6102a78161028c565b82525050565b60006102b9838361029e565b60208301905092915050565b6000602082019050919050565b6102db8161024c565b6102e58184610257565b92506102f082610262565b8060005b8381101561032157815161030887826102ad565b9650610313836102c5565b9250506001810190506102f4565b505050505050565b60006102008201905061033f60008301846102d2565b92915050565b600080fd5b6000819050919050565b61035d8161034a565b811461036857600080fd5b50565b60008135905061037a81610354565b92915050565b60006020828403121561039657610395610345565b5b60006103a48482850161036b565b91505092915050565b6103b68161028c565b82525050565b60006020820190506103d160008301846103ad565b92915050565b6103e08161034a565b82525050565b60006020820190506103fb60008301846103d7565b92915050565b600082825260208201905092915050565b7f496e76616c696420706574496400000000000000000000000000000000000000600082015250565b6000610448600d83610401565b915061045382610412565b602082019050919050565b600060208201905081810360008301526104778161043b565b9050919050565b7f4e487b7100000000000000000000000000000000000000000000000000000000600052603260045260246000fdfea264697066735822122003da7474d44e8ebc296962142d0468eb2e949a7f30461e7ebc5815869ee9911264736f6c634300080f0033",
  "immutableReferences": {},
  "source": "// SPDX-License-Identifier: MIT \r\npragma solidity ^0.8.15;\r\n\r\ncontract Adoption {\r\n\r\n    address[16] public adopters;\r\n\r\n    function adopt(uint petId) public returns(uint) {\r\n        require(petId >= 0 && petId <= 15, \"Invalid petId\");\r\n\r\n        adopters[petId] = msg.sender;\r\n\r\n        return petId;\r\n    }\r\n\r\n    function getAdopt() public view returns(address[16] memory) {\r\n        return adopters;\r\n    }\r\n}\r\n",
  "sourcePath": "C:\\Users\\Oguzhan\\Desktop\\FsDApp\\contracts\\Adoption.sol",
  "compiler": {
    "name": "solc",
    "version": "0.8.15+commit.e14f2714.Emscripten.clang"
  },
  "schemaVersion": "3.4.16",
  "updatedAt": "2024-10-01T12:44:02.689Z",
  "networkType": "ethereum",
  "devdoc": {
    "kind": "dev",
    "methods": {},
    "version": 1
  },
  "userdoc": {
    "kind": "user",
    "methods": {},
    "version": 1
  }
}